:100000000C9425010C9444010C9444010C9444017B
:100010000C9444010C9444010C9444010C9444014C
:100020000C9444010C9444010C9444010C9444013C
:100030000C94C9010C9444010C9444010C944401A7
:100040000C9444010C9444010C9444010C9444011C
:100050000C9444010C9444010C9444010C9444010C
:100060000C9444010C9444010C9444010C944401FC
:100070000C9444010C9444010C9444010C94D40B52
:100080000C9444010C9444010C9444010C944401DC
:100090000C9444010C9444010C9444010C944401CC
:1000A0000C9444010C9444010C9444010C944401BC
:1000B0000C9444010C9444010C9444010C944401AC
:1000C0000C9444010C9444010C9444010C9444019C
:1000D0000C9444010C9444010C9444010C9444018C
:1000E0000C9444010C9444014E414E494E495459DC
:1000F000494E46CDCCCC3D0AD7233C17B7D13877F3
:10010000CC2B329595E6241FB14F0A000020410008
:1001100000C84200401C4620BCBE4CCA1B0E5AAE52
:10012000C59D74746573742073686F7720307E3159
:10013000300A00746573742073686F770A007468FE
:1001400069732069732073686F77206E756D6265BF
:1001500072202564200A0074686973206973207313
:10016000686F7720636F6D6D616E64200A007C0A92
:10017000202020002E0025630020207C00203078E5
:100180002530385800203078253038583A20003E45
:100190003E206D64702061646472205B73697A65CF
:1001A0005D200A007C0A202020002E00256300200C
:1001B000207C0020307825303858002030782530D9
:1001C00038583A20003E3E206D64206164647220FD
:1001D0005B73697A655D200A002D2D2D2D2D2D2D47
:1001E0002D2D2D2D2D2D2D2D2D2D2D2D2D2D2D2D3F
:1001F0002D2D2D2D2D2D0D0A000D0A002D2D2D2D0F
:100200002D2D2D2D2D2D20636D64206C6973742090
:100210002D2D2D2D2D2D2D2D2D0D0A000D0A0063B8
:100220006C692320000A0D000D0A001B5B34682551
:10023000631B5B346C000820081B5B3150001B5BA8
:100240003150004004440406000011241FBECFEFCB
:10025000CDBFDFE7DEBF10E4A0E0B0E4E2E6F7E206
:1002600000E00BBF02C007900D92A433B107D9F78D
:1002700023E4A4E3B0E401C01D92A13FB207E1F77B
:100280000E940A0C0C94AF130C9400006BBFFA018F
:10029000DC0102C007900D9221503040D8F708953C
:1002A0001F93CF93DF93EC0188819981019791F49B
:1002B000EA85FB8560E070E480E00995882361F0C1
:1002C00087E591E09F938F930E940F050F900F9009
:1002D00011E003C010E001C010E08881998102970D
:1002E000C9F4EA85FB8560E070E480E00995882325
:1002F00089F0EC81FD8181E009951F926F938EE377
:1003000091E09F938F930E940F050F900F900F9095
:100310000F9011E0111110C083E391E09F938F9330
:100320000E940F0583E291E09F938F930E940F0537
:100330000F900F900F900F90DF91CF911F91089524
:1003400040E052EC61E070E080E00E94CA0460E5A9
:1003500071E085E090E40E94D10908950E941302A3
:100360006B017C010E941302DC01CB018C199D09F9
:10037000AE09BF0984369105A105B10538F00E9488
:1003800013026B017C0180E00E94690A0E94A707AA
:10039000E9CF1F920F920FB60F9211248F939F9364
:1003A000AF93BF938091344090913540A0913640F7
:1003B000B09137400196A11DB11D809334409093B8
:1003C0003540A0933640B093374081E08093060BD0
:1003D000BF91AF919F918F910F900FBE0F901F9083
:1003E000189588ED84BFE0E6F0E091E0948F22E07C
:1003F0002093470184BF25E2208784BF108284BFF9
:100400001182E0E0FBE01082118295838FEB9DE585
:100410008487958780818160808380E48093410414
:10042000789481E008952FB7F894609134407091EA
:10043000354080913640909137402FBF0895FC01A0
:100440001082118212821382148215821682178200
:10045000208731874287538764877587672B31F4FC
:10046000108611861286138680E0089581E0089533
:100470004F925F926F927F928F929F92AF92BF92B4
:10048000CF92DF92EF92FF920F931F93CF93DF9360
:10049000FC018B0149015A0184859585892BE1F185
:1004A00040E050E0BA0131C0C080D180E280F380EA
:1004B000D701C6010196A11DB11D408451846284FB
:1004C000738484159505A605B70519F480E090E0BE
:1004D000DC01448055806680778084159505A605EB
:1004E000B705E1F0C485D585CC0EDD1E7801E40E9C
:1004F000F51EE7012881E601288380839183A2838A
:10050000B3834F5F5F4F6F4F7F4F481559056A05A3
:100510007B0550F281E003C080E001C080E0DF9104
:10052000CF911F910F91FF90EF90DF90CF90BF90F0
:10053000AF909F908F907F906F905F904F900895B5
:100540004F925F926F927F928F929F92AF92BF92E3
:10055000CF92DF92EF92FF920F931F93CF93DF938F
:10056000FC01CB0149015A0124853585232BE1F19A
:1005700040E050E0BA0131C0048115812681378105
:1005800068017901AFEFCA1ADA0AEA0AFA0A408466
:10059000518462847384C414D504E604F70419F406
:1005A000C12CD12C7601408051806280738004156B
:1005B000150526053705D1F0DC01A40FB51FC4854C
:1005C000D585C00FD11F28812C93C482D582E682A5
:1005D000F7824F5F5F4F6F4F7F4F481559056A0590
:1005E0007B0550F281E003C080E001C080E0DF9134
:1005F000CF911F910F91FF90EF90DF90CF90BF9020
:10060000AF909F908F907F906F905F904F900895E4
:10061000CF92DF92EF92FF92FC01208531854285D7
:10062000538580819181A281B381820F931FA41F82
:10063000B51FC480D580E680F780BC01CD016C1960
:100640007D098E099F090E94270CFF90EF90DF9093
:10065000CF900895FC01EF5AFD4F10823197108220
:1006600031972FE22083F09710820895FC01EF5A12
:10067000FE4F5081252F30E043E3429FD001439F3E
:10068000B00D1124A80FB91FAD5ABE4FE253FF4F52
:1006900001900D924A95E1F7FC01EE5AFE4F408120
:1006A000443010F44F5F4083FC01E05BFE4F508309
:1006B0002F5F3F4F23703078332334F421503109BA
:1006C0002C6F3F6F2F5F3F4FFC01EF5AFE4F20838F
:1006D000329721E020830895FC0120E030E00EC035
:1006E000DF01A20FB31F9C91992359F04FE9490FE5
:1006F0004A3108F490529C932F5F3F4F2E303105C2
:1007000078F32E30310529F421503109E20FF31F1F
:100710001082089590E020918C4330918D43821790
:10072000930758F4E0918E43F0918F43880F991FFF
:10073000E80FF91F80819181089580E090E008958D
:10074000282F30E080918C4390918D4328173907F2
:1007500088F4CB01E0918E43F0918F43220F331F39
:10076000E20FF31F608171810E94050F892B21F038
:1007700080E0089580E0089581E0089590E0209160
:100780008C4330918D438217930778F4E0918E4328
:10079000F0918F43880F991FE80FF91F60E070E018
:1007A000808191810E945D0C089560E070E0CB0132
:1007B000089590E020918C4330918D4382179307E8
:1007C00088F4E0918E43F0918F43880F991FE80FD2
:1007D000F91F40E050E060E070E0808191810E946C
:1007E000B90D089560E070E080E090E008951F93F7
:1007F000CF93DF93FC01EE5AFE4F2081222309F4B0
:1008000074C0162FEC01E250FF4F8081882379F0ED
:100810001F928F938AE090E49F938F9388818F93A8
:100820000E94A80B0F900F900F900F900F90FE0159
:10083000EF5AFD4F8081882379F01F928F9380E1DA
:1008400090E49F938F9388818F930E94A80B0F90C1
:100850000F900F900F900F901130F1F4FE01E15BBB
:10086000FE4F8081882321F03296808131978083EA
:10087000FE01E05BFE4F8081DE01AE5ABE4F6C91FF
:1008800070E09B01280F311D87FD3A95C901019742
:100890000E94130C808310C0FE01E05BFE4F80813C
:1008A000082E000C990B0196DE01AE5ABE4F6C91DA
:1008B00070E00E94130C8083DE01A15EBD4FFE013B
:1008C00033E3839FE00DF11D1124ED5AFE4F83E3C6
:1008D00001900D928A95E1F7FE01EF5AFD4F80815C
:1008E00031978083C15BDE4F1882DF91CF911F91DA
:1008F0000895CF92DF92EF92FF920F931F93CF93C1
:10090000DF9300D0CDB7DEB76C01FC01E35FFE4F93
:10091000108211827C0181EFE81A8EEFF80AF7014C
:1009200010821182AE014F5F5F4F66E170E4C60135
:10093000815E9D4F0E94150F20E030E014C08901B8
:100940000F5F1F4F220F331FF701E20FF31F80834A
:100950009183AE014F5F5F4F66E170E480E090E00D
:100960000E94150F9801009751F7F601E35FFE4FC3
:1009700020833183232B11F480E001C081E00F90AC
:100980000F90DF91CF911F910F91FF90EF90DF902B
:10099000CF9008950F931F93CF93DF93E8E3F0E494
:1009A00080839581992369F00091394010913A40F4
:1009B00020913B4030913C4004171507260737072C
:1009C00049F0C8E3D0E449835A836B837C830E9457
:1009D000C10A8D8380913D40DF91CF911F910F918E
:1009E0000895CF93DF93CDB7DEB79E012B5F3F4FC6
:1009F000F901419151919F0160E071E085E490E43B
:100A00000E94440F9C01990F440B550B65E470E460
:100A1000809138400E94220BDF91CF910895CF93AF
:100A2000DF93CDB7DEB79E012B5F3F4FF9014191B8
:100A300051919F0160E071E085E490E40E94770F9E
:100A40009C01990F440B550B65E470E4809138408C
:100A50000E94220BDF91CF9108950F931F93CF93A4
:100A6000DF938C010E947904882309F450C088E246
:100A700092E09F938F930E940F05F801E15FFE4F74
:100A8000808191810E946C030F900F90C0E0D0E0B4
:100A900036C0BE0162957295707F7627607F76279B
:100AA0006C5A7D4F600F711FF801E15FFE4F80812E
:100AB00091810E94050F892B09F5F801E35FFE4F34
:100AC0002081318121503109C8018C5A9C4FFC0191
:100AD0002083318398012F5E3E4F329620833183ED
:100AE000C295D295D07FDC27C07FDC27C00FD11FF5
:100AF000CE59DD4FE881F981099509C02196F801A9
:100B0000EE5AFD4F80819181C817D90710F280E01D
:100B1000DF91CF911F910F91089585E292E09F930D
:100B20008F930E940F058FE192E09F938F930E9415
:100B30000F050F900F900F900F900895EF92FF9276
:100B40000F931F93CF93DF93CDB7DEB72997CDBF18
:100B5000DEBF8C016987DC011C968C91811116C166
:100B60006D3051F020F4683009F456C0A2C06B31EA
:100B7000C9F06F37D9F09DC0F801E15EFD4F82A941
:100B8000882331F0C8010E943603C8010E942D0558
:100B9000F801E15EFD4F12AA11AA1082C8010E945D
:100BA0008D05F4C081E0F8018487F0C0F801E15EB2
:100BB000FD4F61A9F2A86F1508F0E8C07F2D761BE4
:100BC00021E030E012C0C901860F911DAC014150F7
:100BD0005109F801E15EFD4FDF01A80FB91F8C91AB
:100BE000E40FF51F80832F5F3F4F872F90E028177A
:100BF00039074CF3AFEFAF0DF801E15EFD4FA2AB4B
:100C0000EA0FF11D10828EE392E09F938F930E9472
:100C10000F050F900F90BAC0F801E15EFD4F82A959
:100C20008823A9F161A9662391F1861305C081503B
:100C300082ABE80FF11D1082F801E15EFD4FF2A8D2
:100C40006F1528F57F2D761B20E030E012C0C9011A
:100C5000860F911DAC0141505109F801E15EFD4F35
:100C6000DF01A80FB91F8C91E40FF51F80832F5F60
:100C70003F4F872F90E0281739074CF3AFEFAF0DA8
:100C8000F801E15EFD4FA2ABEA0FF11D1082F80101
:100C9000E15EFD4F81A9882309F478C0815081ABC2
:100CA00086E392E09F938F930E940F050F900F9021
:100CB0006DC0F801E15EFD4F42A9242F30E02F5FA7
:100CC0003F4F80A990E0281739070CF05FC081A939
:100CD00048131CC021E030E040E050E0BE01675FF7
:100CE0007F4FD8018C910E94220BF801E15EFD4FED
:100CF00091A9DF01A90FB11D89858C9382A98F5F0E
:100D000082AB9F5F91ABE80FF11D1082F801E15EAD
:100D1000FD4FF1A872A9F716C8F5A72FAF1920E06B
:100D200030E012C0872F90E0821B930BFC013197BB
:100D3000A801415E5D4FE40FF51F6081FA01E80FE5
:100D4000F91F60832F5F3F4F8A2F90E028173907E4
:100D50004CF38985F801E15EFD4F9F012F0D311D98
:100D6000D9018C937F5F72ABB1E0BF0DB1ABE70FE0
:100D7000F11D10821F928F938BE292E09F938F93CD
:100D80000E940F050F900F900F900F90F80184852F
:100D9000823069F018F4813039F0CEC0833059F0D8
:100DA000843009F4C8C0C8C082E08487C5C083E02D
:100DB000F8018487C1C0148689858434C1F4F801A0
:100DC000E15EFD4F91A9992391F0915091AB9BE188
:100DD00099839BE59A838B8323E030E040E050E0E9
:100DE000BE016F5F7F4FF80180810E94220B8985D1
:100DF0008334C9F4F801E15EFD4F91A922A992174D
:100E000090F49F5F91AB9BE199839BE59A838B83E1
:100E100023E030E040E050E0BE016F5F7F4FD8013B
:100E20008C910E94220B8985813489F461E0C8018C
:100E30000E94F703C801815E9D4F9F938F93F80135
:100E400080818F930E94A80B0F900F900F9089853F
:100E5000823489F460E0C8010E94F703C801815E12
:100E60009D4F9F938F93D8018C918F930E94A80BD5
:100E70000F900F900F9089858133E9F47801B1EEDE
:100E8000EB1ABDEFFB0AF70181A91F928F938AE04D
:100E900090E49F938F93D8018C918F930E94A80B1D
:100EA000F70111AA84E0D8011C968C930F900F9043
:100EB0000F900F900F9089858433F1F5F801E15E72
:100EC000FD4F21A982A9281798F490E0821B91096F
:100ED0009F938F938DE190E49F938F93F80180818E
:100EE0008F930E94A80B0F900F900F900F900F9070
:100EF000F801E15EFD4F81A922A9281798F490E03E
:100F0000821B91099F938F938AE090E49F938F9324
:100F1000D8018C918F930E94A80B0F900F900F9087
:100F20000F900F90F801E15EFD4F82A981AB84E044
:100F3000F801848701C0148680E02996CDBFDEBF0A
:100F4000DF91CF911F910F91FF90EF900895CF9374
:100F5000C0913D40CC2389F0809138400E94130B12
:100F6000672B682B692B49F0809138400E947F0BDA
:100F7000682F88E390E40E949E058C2FCF910895FE
:100F8000CF93DF938CE192E09F938F930E940F05A4
:100F90008CEF91E09F938F930E940F050F900F901D
:100FA0000F900F90C0E0D0E018C0CE0182959295CE
:100FB000907F9827807F982784579D4B9F938F938E
:100FC0000E94F10489EF91E09F938F930E940F0597
:100FD00021960F900F900F900F9080918A429091E0
:100FE0008B42C817D90708F389ED91E09F938F933F
:100FF0000E940F050F900F90DF91CF9108956F928F
:101000007F928F929F92AF92BF92CF92DF92EF9298
:10101000FF920F931F93CF93DF9300D000D0CDB7F3
:10102000DEB7FC0120813181028113812115310558
:1010300049F485EC91E09F938F930E940F050F90E8
:101040000F90A8C0223031055CF040E050E060E035
:1010500070E0F801828193810E94B90D3B0104C0C8
:101060006894662464F8712CF801808191810E9453
:10107000C60E6C0183E290E49F938F930E94F1046B
:101080000F900F904601E12CF12C80C0C7018370B6
:101090009927892B61F4DF92CF928BEB91E09F939C
:1010A0008F930E940F050F900F900F900F90F601F5
:1010B00081818F9380818F9383EB91E09F938F93B6
:1010C0000E940F05C701837090780F900F900F90CA
:1010D0000F90992324F401978C6F9F6F01960397CB
:1010E00009F04EC08FEA91E09F938F930E940F0505
:1010F0000F900F90A12CB12C37C0F4018081918109
:10110000A281B38189839A83AB83BC8300E010E022
:1011100022C0E1E0F0E0EC0FFD1FE00FF11F808145
:1011200090EE980F9F3568F41F928F938CEA91E0B0
:101130009F938F930E940F050F900F900F900F9029
:1011400008C08AEA91E09F938F930E940F050F9049
:101150000F900F5F1F4F04301105DCF2F2E08F0E8D
:10116000911C8FEFA81AB80AE4E0AE16B1042CF275
:1011700084EA91E09F938F930E940F050F900F9048
:10118000F2E0CF0ED11C8FEFE81AF80AE614F7044C
:101190000CF47CCF2496CDBFDEBFDF91CF911F91A1
:1011A0000F91FF90EF90DF90CF90BF90AF909F9006
:1011B0008F907F906F9008952F923F924F925F9201
:1011C0006F927F928F929F92AF92BF92CF92DF9257
:1011D000EF92FF920F931F93CF93DF9300D000D035
:1011E000CDB7DEB7FC012081318102811381211549
:1011F000310549F48FE891E09F938F930E940F058A
:101200000F900F90B8C0223031055CF040E050E004
:1012100060E070E0F801828193810E94B90D1B01AA
:1012200004C06894222424F8312C40E050E060E0AF
:1012300070E0F801808191810E94B90D4B015C0141
:1012400083E290E49F938F930E94F1040F900F909C
:1012500024013501E12CF12C8AC0C7018370992744
:10126000892B61F49F928F9285E891E09F938F93F1
:101270000E940F050F900F900F900F90ABBEF401DE
:1012800087919791A791B691BF93AF939F938F93B7
:101290008DE791E09F938F930E940F05C7018370A4
:1012A00090780F900F900F900F900F900F909923C0
:1012B00024F401978C6F9F6F0196039709F04FC03C
:1012C00089E791E09F938F930E940F050F900F90F5
:1012D000C12CD12C38C024E030E0B301A201CE01F2
:1012E00001960E94460100E010E022C0E1E0F0E03B
:1012F000EC0FFD1FE00FF11F808190EE980F9F35DE
:1013000068F41F928F9386E791E09F938F930E94DA
:101310000F050F900F900F900F9008C084E791E099
:101320009F938F930E940F050F900F900F5F1F4F99
:1013300004301105DCF2F4E04F0E511C611C711CED
:101340008FEFC81AD80AE4E0CE16D10424F28EE654
:1013500091E09F938F930E940F050F900F90F4E000
:101360008F0E911CA11CB11C8FEFE81AF80AE21431
:10137000F3040CF472CF2496CDBFDEBFDF91CF9182
:101380001F910F91FF90EF90DF90CF90BF90AF90A3
:101390009F908F907F906F905F904F903F902F9095
:1013A0000895EF92FF920F931F93CF93DF932091B5
:1013B0008A4230918B4220313105F8F48B01BC0117
:1013C000E901C295D295D07FDC27C07FDC27CE0112
:1013D00084579D4B7C010E940E0FC656DD4B08833F
:1013E0001983C7010E946C03EAE8F2E480819181CD
:1013F00001968083918381E001C080E0DF91CF91ED
:101400001F910F91FF90EF900895E8E3F0E41582AB
:1014100016821486109288411092894110928A4156
:101420001092874189ED93E080939043909391438C
:101430008EEB93E080939243909393438AE893E0FA
:10144000809394439093954380EA93E080939643EE
:1014500090939743CF010E942A0360EC77E088E2E3
:1014600090E40E94D1096FEF77E08DE290E40E9452
:10147000D1096CED78E080E390E40E94D10981E02D
:10148000089520E030E020C0C901880F991FFC01B9
:10149000E20FF31FEE0FFF1FED5BFD4FA591B4911F
:1014A000FC01E20FF31FEE0FFF1FE95BFD4FE4911C
:1014B00081E090E002C0880F991FEA95E2F79C91C5
:1014C000892B8C932F5F3F4F12161306ECF681E0A9
:1014D000089590E09C01220F331FF901E80FF91FD6
:1014E000EE0FFF1FEB5BFD4FA591B491F901E80FE3
:1014F000F91FEE0FFF1FE95BFD4FE49181E090E0E3
:1015000002C0880F991FEA95E2F79C9189278C9376
:101510000895CF93DF931F92CDB7DEB76983282F4D
:1015200030E087E5829FF001839FF00D1124E8569B
:10153000FC4B8681813089F447E5429FC001439F7F
:10154000900D112421E030E040E050E0BE016F5FDB
:101550007F4F8F519C4B0E9438020F90DF91CF91AB
:10156000089580E00AC097E5899FF0011124E856AC
:10157000FC4B1082168215828F5F8823A1F381E0D5
:101580000895CF92DF92EF92FF921F93CF93DF9354
:10159000811140C06A017B01F89427E5829FC00158
:1015A0001124EC01C856DC4B11E01E8349835A8399
:1015B0006B837C8320E238E02F833887BC016F5532
:1015C0007C4B20E430E040E050E08F519C4B0E9487
:1015D0001F0260E078ED88EB95E0A70196010E947C
:1015E000270CEF81F88520873187EF81F8858BE024
:1015F0008783E0E4F4E0118382E08283EF81F88561
:1016000080EC8683EF81F88580E885837894188361
:1016100081E001C080E0DF91CF911F91FF90EF90BA
:10162000DF90CF900895811109C027E5829FC00106
:1016300011248F519C4B0E940803089560E070E0D4
:10164000CB0108954F925F926F927F928F929F92FB
:10165000AF92BF92CF92DF92EF92FF920F931F93C0
:10166000CF93DF93E7E58E9FC0011124FC01E8567C
:10167000FC4BC781D0858681813059F549015A01DB
:101680008B010E9413022B013C01C12CD12C76014D
:101690001AC08C8185FF0AC0F801EC0DFD1D808108
:1016A0008A832FEFC21AD20AE20AF20A0E941302B8
:1016B000DC01CB0184199509A609B709843F914043
:1016C000A105B10548F4C814D904EA04FB0408F3E1
:1016D00003C0C12CD12C7601C701B601DF91CF9197
:1016E0001F910F91FF90EF90DF90CF90BF90AF9040
:1016F0009F908F907F906F905F904F900895CF93C1
:10170000DF931F92CDB7DEB71982282F30E087E52F
:10171000829FF001839FF00D1124E856FC4B8681D7
:10172000813089F447E5429FC001439F900D112409
:1017300021E030E040E050E0BE016F5F7F4F8F510D
:101740009C4B0E94A00289810F90DF91CF91089558
:10175000CF93DF93CDB7DEB7C058D109CDBFDEBF81
:101760009E0128573F4FCA57DF4F48815981C658BD
:10177000D04060E870E0CE0101960E94440F9C01C9
:10178000990F440B550BBE016F5F7F4FCB57DF4F57
:101790008881C558D0400E94220BC058DF4FCDBF72
:1017A000DEBFDF91CF91089578941F920F920FB60C
:1017B0000F9211240BB60F922F933F934F935F9389
:1017C0006F937F938F939F93AF93BF93EF93FF9309
:1017D0006091200880E00E94890AFF91EF91BF91FB
:1017E000AF919F918F917F916F915F914F913F91B9
:1017F0002F910F900BBE0F900FBE0F901F9018955A
:101800000E94F1010E94410A0E94B10A0E94050A49
:1018100081E008950E94000C0E94A0010E94AE0188
:1018200080E090E0089597FB072E16F4009407D00F
:1018300077FD09D00E94490C07FC05D03EF4909535
:1018400081959F4F0895709561957F4F0895A1E20E
:101850001A2EAA1BBB1BFD010DC0AA1FBB1FEE1F2A
:10186000FF1FA217B307E407F50720F0A21BB30B75
:10187000E40BF50B661F771F881F991F1A9469F7F1
:1018800060957095809590959B01AC01BD01CF014D
:101890000895AA1BBB1B51E107C0AA1FBB1FA617B7
:1018A000B70710F0A61BB70B881F991F5A95A9F709
:1018B00080959095BC01CD0108958F929F92AF9233
:1018C000BF92CF92DF92EF92FF920F931F93CF932D
:1018D000DF93EC016B016115710519F0FB01808349
:1018E00091837E01FFEFEF1AFF0A0881802F90E0BD
:1018F0000E94E40E892B11F0E701F3CF0D3239F489
:101900007E0182E0E80EF11C098111E008C00B3273
:1019100029F47E0192E0E90EF11C098110E0E70153
:10192000219743E050E060EF70E0CE010E94ED0EA1
:10193000892BC1F4239645E050E06BEE70E0CE01B8
:101940000E94ED0E892B09F42596C114D10419F0DB
:10195000F601C083D1831111F6C060E070E080E829
:101960009FE7FAC043E050E068EE70E0CE010E94CD
:10197000ED0E892B59F4C114D10409F4E9C0F2E049
:10198000EF0EF11CF601E082F182E2C020E030E0CF
:10199000A901C0E0D0E0F70160EDA62EA00E89E01D
:1019A0008A1530F1912F9260B92E812F887012FF25
:1019B00004C0811124C0219622C081112197A5E085
:1019C000B0E00E949513DC01CB01880F991FAA1F7C
:1019D000BB1F9C01AD012A0D311D411D511D283930
:1019E00089E93807480789E1580748F0166006C0BA
:1019F0009EEFA9120AC013FD40C01860B12E8FEFF0
:101A0000E81AF80A00811B2DC6CF802F8F7D853400
:101A1000A1F580818D3211F4106106C08B3221F066
:101A2000319661E070E004C08181329662E070E03E
:101A300080538A3018F0E61BF70B1FC060E070E09F
:101A400060389CE079075CF4DB01AA0FBB1FAA0F8A
:101A5000BB1F6A0F7B1F660F771F680F711D3196C2
:101A6000DF0111978C9180538A3050F314FF03C02B
:101A7000719561957109C60FD71F11FF08C0C11478
:101A8000D10429F0CF010197F60180839183CA0127
:101A9000B9010E94AF0F212F2370233019F04B01A1
:101AA0005C0106C04B015C01B7FAB094B7F8B09482
:101AB00020E030E0A901C501B4010E94AA0F8823EB
:101AC00009F43EC0D7FF06C0D195C195D10907E002
:101AD00011E002C00FE111E06801F8E1CF1AD1086E
:101AE00090E2E92EF12CCE15DF0574F0F801259176
:101AF000359145915491C501B4010E9410104B01DC
:101B00005C01CE19DF09EFCF04501109F594E79479
:101B10000C151D0541F78A2D880F8B2D881F8F3FCF
:101B200049F020E030E0A901C501B4010E94AA0FEC
:101B3000811106C082E290E08093EF439093F043DE
:101B4000C501B40109C060E070E080E89FEF04C007
:101B500060E070E080EC9FE7DF91CF911F910F91E3
:101B6000FF90EF90DF90CF90BF90AF909F908F90BD
:101B700008953F924F925F926F927F928F929F92C1
:101B8000AF92BF92CF92DF92EF92FF920F931F938B
:101B9000CF93DF935C016B017A016115710519F038
:101BA000FB0180839183E114F10429F0C7010297BE
:101BB000839708F0C9C0E5012196F5011081812FB6
:101BC00090E00E94E40E892B11F05E01F4CF1D32EB
:101BD00029F42196F501118101E007C01B3221F49F
:101BE000E5012296F501118100E0E114F104B1F064
:101BF000F0E1EF16F10429F4B0C010E3E114F104B0
:101C000001F12AE0E216F104B1F180E1E816F104F5
:101C100071F0E8E0EE16F104F1F413C0103341F571
:101C200088818F7D883549F7198122960260F0E11D
:101C3000EF2EF12C88248A94982CA82CAFE0BA2E91
:101C400020C078E0E72EF12C88248A94982CA82CC8
:101C5000EFE1BE2E16C06FEF7FEFCB0197010F2C87
:101C6000000C440B550B0E94270C49015A0109C076
:101C70008AE0E82EF12C69E9862E982CA82C69E1DF
:101C8000B62E40E060E070E0CB0127010F2C000C85
:101C900066087708FE0150ED352E310E29E0231538
:101CA00070F42FEB210F2A3118F439EC332E06C0D3
:101CB0002FE9210F2A3130F529EA322E310E232D5A
:101CC00030E02E153F05F4F44F3FC9F08616970615
:101CD000A806B90688F0A30192010E948513232D5E
:101CE00030E040E050E0620F731F841F951F6217C1
:101CF00073078407950710F44FEF01C041E0219668
:101D00001081C8CFC114D10451F0442311F02197A0
:101D100003C001FF04C02297F601C083D18300FFF6
:101D200007C090958095709561957F4F8F4F9F4F1D
:101D30004F3F79F482E290E08093EF439093F04339
:101D40003FEF2FEF9FEF0DC040E030E020E090E04C
:101D500008C0462F372F282F04C0103309F067CF53
:101D60005FCF642F732F822FDF91CF911F910F913F
:101D7000FF90EF90DF90CF90BF90AF909F908F90AB
:101D80007F906F905F904F903F900895FC0188275F
:101D90009927E89421912032E9F3293010F02E3070
:101DA000C8F32B3241F02D3239F4689404C00E94FC
:101DB0003C0F820F911D219120532A30C0F31EF455
:101DC000909581959F4F089591110C9481128032C6
:101DD00019F089508550C8F70895FB01DC01415086
:101DE000504088F08D9181341CF08B350CF4805E6E
:101DF000659161341CF06B350CF4605E861B6111DB
:101E000071F3990B0895881BFCCFFB01DC018D91C8
:101E1000019080190110D9F3990B0895FB01DC01A1
:101E200001900D920020E1F70895FA01A191B0818F
:101E3000009719F41097E1F0CD01DC01CD010D9070
:101E4000002011F4C00113C0FB012191222319F0DD
:101E50002015D9F7F3CFFB012191201519F41E921B
:101E6000119606C02223C1F70D900020A1F7D001E2
:101E7000FA01A193B08308957AE0979F902D879FF0
:101E8000802D910D112408950F931F93CF93DF930D
:101E9000CDB7DEB72E97CDBFDEBF8C01FA0186E04D
:101EA0008C8309831A8377FF02C060E070E8CB015E
:101EB00001978D839E83A901BF01CE0101960E94E7
:101EC0007D104D815E8157FD0AC02F8138854217F4
:101ED00053070CF49A01F801E20FF31F10822E96BB
:101EE000CDBFDEBFDF91CF911F910F9108950F936A
:101EF0001F93CF93DF93CDB7DEB72E97CDBFDEBF55
:101F00008C01FA018EE08C8309831A8377FF02C06B
:101F100060E070E8CB0101978D839E83A901BF012A
:101F2000CE0101960E947D104D815E8157FD0AC051
:101F30002F813885421753070CF49A01F801E20FFC
:101F4000F31F10822E96CDBFDEBFDF91CF911F9180
:101F50000F9108950E94EC0F08F481E00895E89431
:101F600009C097FB3EF490958095709561957F4FE1
:101F70008F4F9F4F9923A9F0F92F96E9BB2793958F
:101F8000F695879577956795B795F111F8CFFAF49F
:101F9000BB0F11F460FF1BC06F5F7F4F8F4F9F4FD0
:101FA00016C0882311F096E911C0772321F09EE82E
:101FB000872F762F05C0662371F096E8862F70E094
:101FC00060E02AF09A95660F771F881FDAF7880F6E
:101FD0009695879597F90895990F0008550FAA0BC4
:101FE000E0E8FEEF16161706E807F907C0F012162C
:101FF0001306E407F50798F0621B730B840B950B2F
:1020000039F40A2661F0232B242B252B21F4089583
:102010000A2609F4A140A6958FEF811D811D089520
:102020000E9423100C944B130E943D1338F00E9421
:10203000441320F0952311F00C9434130C943A13AC
:1020400011240C947F130E945C1370F3959FC1F3CD
:10205000950F50E0551F629FF001729FBB27F00D56
:10206000B11D639FAA27F00DB11DAA1F649F6627AB
:10207000B00DA11D661F829F2227B00DA11D621FFA
:10208000739FB00DA11D621F839FA00D611D221FB4
:10209000749F3327A00D611D231F849F600D211D98
:1020A000822F762F6A2F11249F5750409AF0F1F01B
:1020B00088234AF0EE0FFF1FBB1F661F771F881F84
:1020C00091505040A9F79E3F510580F00C94341375
:1020D0000C947F135F3FE4F3983ED4F38695779595
:1020E0006795B795F795E7959F5FC1F7FE2B880F2A
:1020F000911D9695879597F908952F923F924F924B
:102100005F926F927F928F929F92AF92BF92CF9287
:10211000DF92EF92FF920F931F93CF93DF93CDB790
:10212000DEB72B97CDBFDEBF6C017B018A01FC01BE
:1021300016821782838181FFCCC1CE0101963C01BA
:10214000F6019381F70193FD859193FF81917F01C2
:10215000882309F4BAC1853239F493FD859193FF40
:1021600081917F01853229F4B60190E00E949A1294
:10217000E7CF912C212C312CFFE1F315D8F08B32D5
:1021800079F038F4803279F08332A1F4232D206184
:102190001DC08D3261F0803369F4232D216016C09B
:1021A000832D8260382EE32DE4603E2E2AC0F32D6D
:1021B000F8601DC037FC2DC020ED280F2A3040F0FC
:1021C0008E32B9F436FC81C1232D2064322E19C021
:1021D00036FE06C08AE0989E200D1124922E11C072
:1021E000EAE02E9E200D1124222EF32DF0623F2EC8
:1021F00008C08C3621F4832D8068382E02C08836C2
:1022000041F4F70193FD859193FF81917F01811145
:10221000B3CF982F9F7D9554933028F40C5F1F4FB8
:102220009FE399830DC0833631F0833771F0833596
:1022300009F059C021C0F801808189830E5F1F4FCA
:1022400088248394912C530113C02801F2E04F0E8F
:10225000511CF801A080B18036FE03C0692D70E0EA
:1022600002C06FEF7FEFC5010E948F124C01820107
:10227000F32DFF773F2E16C0280122E0420E511C9D
:10228000F801A080B18036FE03C0692D70E002C065
:102290006FEF7FEFC5010E9484124C01F32DF068AF
:1022A0003F2E820133FC1BC0822D90E088169906D8
:1022B000B0F4B60180E290E00E949A122A94F4CF22
:1022C000F50137FC859137FE81915F01B60190E001
:1022D0000E949A1221102A9421E0821A91088114F6
:1022E000910471F7E8C0843611F0893641F5F801A0
:1022F00037FE07C060817181828193810C5F1F4F1F
:1023000008C060817181072E000C880B990B0E5F4D
:102310001F4FF32DFF763F2E97FF09C090958095B4
:10232000709561957F4F8F4F9F4FF0683F2E2AE049
:1023300030E0A3010E94D612882E861845C085374A
:1023400031F4232D2F7EB22E2AE030E025C0932DCC
:10235000997FB92E8F36C1F018F4883579F0B5C061
:10236000803719F0883721F0B0C0E92FE061BE2E28
:10237000B4FE0DC0FB2DF460BF2E09C034FE0AC0B0
:10238000292F2660B22E06C028E030E005C020E1EB
:1023900030E002C020E132E0F801B7FE07C0608102
:1023A0007181828193810C5F1F4F06C060817181B2
:1023B00080E090E00E5F1F4FA3010E94D612882E8E
:1023C0008618FB2DFF773F2E36FE0DC0232D2E7F66
:1023D000A22E891458F434FE0BC032FC09C0832DA0
:1023E0008E7EA82E05C0B82CA32C03C0B82C01C02B
:1023F000B92CA4FE0FC0FE01E80DF11D80818033D1
:1024000021F49A2D997EA92E09C0A2FE06C0B3948C
:10241000B39404C08A2D867809F0B394A3FC11C04C
:10242000A0FE06C0B21488F4280C922C9B180EC093
:10243000B21460F4B60180E290E00E949A12B39464
:10244000F7CFB21418F42B1802C0982C212CA4FE3C
:1024500010C0B60180E390E00E949A12A2FE17C05D
:10246000A1FC03C088E790E002C088E590E0B601D7
:102470000CC08A2D867859F0A1FE02C08BE201C003
:1024800080E2A7FC8DE2B60190E00E949A128914C6
:1024900038F4B60180E390E00E949A129A94F7CF44
:1024A0008A94F301E80DF11D8081B60190E00E944D
:1024B0009A128110F5CF222009F442CEB60180E2B3
:1024C00090E00E949A122A94F6CFF60186819781B5
:1024D00002C08FEF9FEF2B96CDBFDEBFDF91CF9174
:1024E0001F910F91FF90EF90DF90CF90BF90AF9032
:1024F0009F908F907F906F905F904F903F902F9024
:102500000895992788270895FC010590615070402F
:102510000110D8F7809590958E0F9F1F0895FC01AC
:102520006150704001900110D8F7809590958E0F02
:102530009F1F08950F931F93CF93DF93FB01238178
:1025400021FD03C08FEF9FEF2CC022FF16C04681F4
:102550005781248135814217530744F4A081B1810A
:102560009D012F5F3F4F208331838C9326813781DC
:102570002F5F3F4F2683378314C08B01EC01FB0193
:102580000084F185E02D0995892BE1F6D801169696
:102590008D919C911797019616968D939C93179702
:1025A000CE01DF91CF911F910F910895FA01AA27D3
:1025B000283051F1203181F1E8946F936E7F6E5F86
:1025C0007F4F8F4F9F4FAF4FB1E03ED0B4E03CD034
:1025D000670F781F891F9A1FA11D680F791F8A1F17
:1025E000911DA11D6A0F711D811D911DA11D20D07E
:1025F00009F468943F912AE0269F11243019305D38
:102600003193DEF6CF010895462F4770405D419328
:10261000B3E00FD0C9F7F6CF462F4F70405D4A3375
:1026200018F0495D31FD4052419302D0A9F7EACF3D
:10263000B4E0A6959795879577956795BA95C9F76C
:1026400000976105710508959B01AC010A2E06945F
:102650005795479537952795BA95C9F7620F731F18
:10266000841F951FA01D089597F99F6780E870E06B
:1026700060E008959FEF80EC089500240A941616F8
:10268000170618060906089500240A941216130660
:10269000140605060895092E0394000C11F48823EE
:1026A00052F0BB0F40F4BF2B11F460FF04C06F5F0A
:1026B0007F4F8F4F9F4F089557FD9058440F551FE0
:1026C00059F05F3F71F04795880F97FB991F61F0B4
:1026D0009F3F79F087950895121613061406551F2B
:1026E000F2CF4695F1DF08C0161617061806991F97
:1026F000F1CF86957105610508940895E894BB278C
:1027000066277727CB0197F90895DB018F939F9375
:102710000E949513BF91AF91A29F800D911DA39F21
:10272000900DB29F900D112408950E94A013A59FB3
:10273000900DB49F900DA49F800D911D11240895BC
:10274000A29FB001B39FC001A39F700D811D1124F2
:10275000911DB29F700D811D1124911D0895F89453
:02276000FFCFA9
:1027620073686F770074657374001B5B25644400A3
:102772001B5B25645000200C0A0D090B001B5B2516
:102782006443000A2020200068656C70006D6400BC
:042792006D64700002
:00000001FF
